{
  "_format": "hh-sol-artifact-1",
  "contractName": "Marketplace",
  "sourceName": "contracts/Marketplace.sol",
  "abi": [
    {
      "inputs": [
        {
          "internalType": "address",
          "name": "_propertyToken",
          "type": "address"
        }
      ],
      "stateMutability": "nonpayable",
      "type": "constructor"
    },
    {
      "anonymous": false,
      "inputs": [
        {
          "indexed": true,
          "internalType": "uint256",
          "name": "tokenId",
          "type": "uint256"
        }
      ],
      "name": "TokenDelisted",
      "type": "event"
    },
    {
      "anonymous": false,
      "inputs": [
        {
          "indexed": true,
          "internalType": "uint256",
          "name": "tokenId",
          "type": "uint256"
        },
        {
          "indexed": false,
          "internalType": "uint256",
          "name": "price",
          "type": "uint256"
        },
        {
          "indexed": false,
          "internalType": "address",
          "name": "seller",
          "type": "address"
        }
      ],
      "name": "TokenListed",
      "type": "event"
    },
    {
      "anonymous": false,
      "inputs": [
        {
          "indexed": true,
          "internalType": "uint256",
          "name": "tokenId",
          "type": "uint256"
        },
        {
          "indexed": false,
          "internalType": "address",
          "name": "buyer",
          "type": "address"
        }
      ],
      "name": "TokenSold",
      "type": "event"
    },
    {
      "inputs": [
        {
          "internalType": "uint256",
          "name": "tokenId",
          "type": "uint256"
        }
      ],
      "name": "buyToken",
      "outputs": [],
      "stateMutability": "payable",
      "type": "function"
    },
    {
      "inputs": [
        {
          "internalType": "uint256",
          "name": "tokenId",
          "type": "uint256"
        }
      ],
      "name": "delistToken",
      "outputs": [],
      "stateMutability": "nonpayable",
      "type": "function"
    },
    {
      "inputs": [
        {
          "internalType": "uint256",
          "name": "tokenId",
          "type": "uint256"
        }
      ],
      "name": "getListing",
      "outputs": [
        {
          "internalType": "uint256",
          "name": "price",
          "type": "uint256"
        },
        {
          "internalType": "address",
          "name": "seller",
          "type": "address"
        }
      ],
      "stateMutability": "view",
      "type": "function"
    },
    {
      "inputs": [
        {
          "internalType": "uint256",
          "name": "tokenId",
          "type": "uint256"
        },
        {
          "internalType": "uint256",
          "name": "price",
          "type": "uint256"
        }
      ],
      "name": "listToken",
      "outputs": [],
      "stateMutability": "nonpayable",
      "type": "function"
    },
    {
      "inputs": [
        {
          "internalType": "uint256",
          "name": "",
          "type": "uint256"
        }
      ],
      "name": "listings",
      "outputs": [
        {
          "internalType": "uint256",
          "name": "price",
          "type": "uint256"
        },
        {
          "internalType": "address",
          "name": "seller",
          "type": "address"
        }
      ],
      "stateMutability": "view",
      "type": "function"
    },
    {
      "inputs": [],
      "name": "propertyToken",
      "outputs": [
        {
          "internalType": "contract IERC721",
          "name": "",
          "type": "address"
        }
      ],
      "stateMutability": "view",
      "type": "function"
    }
  ],
  "bytecode": "0x608060405234801561001057600080fd5b50604051610edc380380610edc833981810160405281019061003291906100db565b806000806101000a81548173ffffffffffffffffffffffffffffffffffffffff021916908373ffffffffffffffffffffffffffffffffffffffff16021790555050610108565b600080fd5b600073ffffffffffffffffffffffffffffffffffffffff82169050919050565b60006100a88261007d565b9050919050565b6100b88161009d565b81146100c357600080fd5b50565b6000815190506100d5816100af565b92915050565b6000602082840312156100f1576100f0610078565b5b60006100ff848285016100c6565b91505092915050565b610dc5806101176000396000f3fe6080604052600436106100555760003560e01c8063107a274a1461005a5780632d296bf11461009857806343ae2695146100b457806375c1631d146100df578063bed659bc14610108578063de74e57b14610131575b600080fd5b34801561006657600080fd5b50610081600480360381019061007c919061093c565b61016f565b60405161008f9291906109b9565b60405180910390f35b6100b260048036038101906100ad919061093c565b610208565b005b3480156100c057600080fd5b506100c96104a2565b6040516100d69190610a41565b60405180910390f35b3480156100eb57600080fd5b5061010660048036038101906101019190610a5c565b6104c6565b005b34801561011457600080fd5b5061012f600480360381019061012a919061093c565b6107a4565b005b34801561013d57600080fd5b506101586004803603810190610153919061093c565b6108bd565b6040516101669291906109b9565b60405180910390f35b600080600060016000858152602001908152602001600020604051806040016040529081600082015481526020016001820160009054906101000a900473ffffffffffffffffffffffffffffffffffffffff1673ffffffffffffffffffffffffffffffffffffffff1673ffffffffffffffffffffffffffffffffffffffff16815250509050806000015181602001519250925050915091565b600060016000838152602001908152602001600020604051806040016040529081600082015481526020016001820160009054906101000a900473ffffffffffffffffffffffffffffffffffffffff1673ffffffffffffffffffffffffffffffffffffffff1673ffffffffffffffffffffffffffffffffffffffff16815250509050600073ffffffffffffffffffffffffffffffffffffffff16816020015173ffffffffffffffffffffffffffffffffffffffff16036102fd576040517f08c379a00000000000000000000000000000000000000000000000000000000081526004016102f490610af9565b60405180910390fd5b80600001513414610343576040517f08c379a000000000000000000000000000000000000000000000000000000000815260040161033a90610b65565b60405180910390fd5b600160008381526020019081526020016000206000808201600090556001820160006101000a81549073ffffffffffffffffffffffffffffffffffffffff0219169055505060008054906101000a900473ffffffffffffffffffffffffffffffffffffffff1673ffffffffffffffffffffffffffffffffffffffff166342842e0e826020015133856040518463ffffffff1660e01b81526004016103e993929190610b85565b600060405180830381600087803b15801561040357600080fd5b505af1158015610417573d6000803e3d6000fd5b50505050806020015173ffffffffffffffffffffffffffffffffffffffff166108fc349081150290604051600060405180830381858888f19350505050158015610465573d6000803e3d6000fd5b50817f751f224aea8528cb3199d1615151d4b851c884ad39e72c306356520ec6d2cf95336040516104969190610bbc565b60405180910390a25050565b60008054906101000a900473ffffffffffffffffffffffffffffffffffffffff1681565b3373ffffffffffffffffffffffffffffffffffffffff1660008054906101000a900473ffffffffffffffffffffffffffffffffffffffff1673ffffffffffffffffffffffffffffffffffffffff16636352211e846040518263ffffffff1660e01b81526004016105369190610bd7565b602060405180830381865afa158015610553573d6000803e3d6000fd5b505050506040513d601f19601f820116820180604052508101906105779190610c1e565b73ffffffffffffffffffffffffffffffffffffffff16146105cd576040517f08c379a00000000000000000000000000000000000000000000000000000000081526004016105c490610c97565b60405180910390fd5b3073ffffffffffffffffffffffffffffffffffffffff1660008054906101000a900473ffffffffffffffffffffffffffffffffffffffff1673ffffffffffffffffffffffffffffffffffffffff1663081812fc846040518263ffffffff1660e01b815260040161063d9190610bd7565b602060405180830381865afa15801561065a573d6000803e3d6000fd5b505050506040513d601f19601f8201168201806040525081019061067e9190610c1e565b73ffffffffffffffffffffffffffffffffffffffff16146106d4576040517f08c379a00000000000000000000000000000000000000000000000000000000081526004016106cb90610d03565b60405180910390fd5b60405180604001604052808281526020013373ffffffffffffffffffffffffffffffffffffffff16815250600160008481526020019081526020016000206000820151816000015560208201518160010160006101000a81548173ffffffffffffffffffffffffffffffffffffffff021916908373ffffffffffffffffffffffffffffffffffffffff160217905550905050817fa86bf5a1c4342c2337dd44c7635b99bcf75adc1398c78ef17152022c4005f5e282336040516107989291906109b9565b60405180910390a25050565b3373ffffffffffffffffffffffffffffffffffffffff166001600083815260200190815260200160002060010160009054906101000a900473ffffffffffffffffffffffffffffffffffffffff1673ffffffffffffffffffffffffffffffffffffffff1614610848576040517f08c379a000000000000000000000000000000000000000000000000000000000815260040161083f90610d6f565b60405180910390fd5b600160008281526020019081526020016000206000808201600090556001820160006101000a81549073ffffffffffffffffffffffffffffffffffffffff02191690555050807fee7c2f965ebdb53834ff1ed54a46daf80c8666c699d11fa05498fae01e92737a60405160405180910390a250565b60016020528060005260406000206000915090508060000154908060010160009054906101000a900473ffffffffffffffffffffffffffffffffffffffff16905082565b600080fd5b6000819050919050565b61091981610906565b811461092457600080fd5b50565b60008135905061093681610910565b92915050565b60006020828403121561095257610951610901565b5b600061096084828501610927565b91505092915050565b61097281610906565b82525050565b600073ffffffffffffffffffffffffffffffffffffffff82169050919050565b60006109a382610978565b9050919050565b6109b381610998565b82525050565b60006040820190506109ce6000830185610969565b6109db60208301846109aa565b9392505050565b6000819050919050565b6000610a07610a026109fd84610978565b6109e2565b610978565b9050919050565b6000610a19826109ec565b9050919050565b6000610a2b82610a0e565b9050919050565b610a3b81610a20565b82525050565b6000602082019050610a566000830184610a32565b92915050565b60008060408385031215610a7357610a72610901565b5b6000610a8185828601610927565b9250506020610a9285828601610927565b9150509250929050565b600082825260208201905092915050565b7f546f6b656e206e6f74206c697374656400000000000000000000000000000000600082015250565b6000610ae3601083610a9c565b9150610aee82610aad565b602082019050919050565b60006020820190508181036000830152610b1281610ad6565b9050919050565b7f496e636f7272656374207061796d656e74000000000000000000000000000000600082015250565b6000610b4f601183610a9c565b9150610b5a82610b19565b602082019050919050565b60006020820190508181036000830152610b7e81610b42565b9050919050565b6000606082019050610b9a60008301866109aa565b610ba760208301856109aa565b610bb46040830184610969565b949350505050565b6000602082019050610bd160008301846109aa565b92915050565b6000602082019050610bec6000830184610969565b92915050565b610bfb81610998565b8114610c0657600080fd5b50565b600081519050610c1881610bf2565b92915050565b600060208284031215610c3457610c33610901565b5b6000610c4284828501610c09565b91505092915050565b7f596f7520617265206e6f7420746865206f776e65720000000000000000000000600082015250565b6000610c81601583610a9c565b9150610c8c82610c4b565b602082019050919050565b60006020820190508181036000830152610cb081610c74565b9050919050565b7f4d61726b6574706c616365206e6f7420617070726f7665640000000000000000600082015250565b6000610ced601883610a9c565b9150610cf882610cb7565b602082019050919050565b60006020820190508181036000830152610d1c81610ce0565b9050919050565b7f4e6f7420796f7572206c697374696e6700000000000000000000000000000000600082015250565b6000610d59601083610a9c565b9150610d6482610d23565b602082019050919050565b60006020820190508181036000830152610d8881610d4c565b905091905056fea26469706673582212208d02ad23b0fb356a5570a5fc4a76c44c523d67314c4f04947799b32d9382bec064736f6c634300081c0033",
  "linkReferences": {},
  "deployedLinkReferences": {}
}