{
  "_format": "hh-sol-artifact-1",
  "contractName": "PropertyToken",
  "sourceName": "contracts/PropertyToken.sol",
  "abi": [
    {
      "inputs": [],
      "stateMutability": "nonpayable",
      "type": "constructor"
    },
    {
      "inputs": [
        {
          "internalType": "address",
          "name": "sender",
          "type": "address"
        },
        {
          "internalType": "uint256",
          "name": "tokenId",
          "type": "uint256"
        },
        {
          "internalType": "address",
          "name": "owner",
          "type": "address"
        }
      ],
      "name": "ERC721IncorrectOwner",
      "type": "error"
    },
    {
      "inputs": [
        {
          "internalType": "address",
          "name": "operator",
          "type": "address"
        },
        {
          "internalType": "uint256",
          "name": "tokenId",
          "type": "uint256"
        }
      ],
      "name": "ERC721InsufficientApproval",
      "type": "error"
    },
    {
      "inputs": [
        {
          "internalType": "address",
          "name": "approver",
          "type": "address"
        }
      ],
      "name": "ERC721InvalidApprover",
      "type": "error"
    },
    {
      "inputs": [
        {
          "internalType": "address",
          "name": "operator",
          "type": "address"
        }
      ],
      "name": "ERC721InvalidOperator",
      "type": "error"
    },
    {
      "inputs": [
        {
          "internalType": "address",
          "name": "owner",
          "type": "address"
        }
      ],
      "name": "ERC721InvalidOwner",
      "type": "error"
    },
    {
      "inputs": [
        {
          "internalType": "address",
          "name": "receiver",
          "type": "address"
        }
      ],
      "name": "ERC721InvalidReceiver",
      "type": "error"
    },
    {
      "inputs": [
        {
          "internalType": "address",
          "name": "sender",
          "type": "address"
        }
      ],
      "name": "ERC721InvalidSender",
      "type": "error"
    },
    {
      "inputs": [
        {
          "internalType": "uint256",
          "name": "tokenId",
          "type": "uint256"
        }
      ],
      "name": "ERC721NonexistentToken",
      "type": "error"
    },
    {
      "inputs": [
        {
          "internalType": "address",
          "name": "owner",
          "type": "address"
        }
      ],
      "name": "OwnableInvalidOwner",
      "type": "error"
    },
    {
      "inputs": [
        {
          "internalType": "address",
          "name": "account",
          "type": "address"
        }
      ],
      "name": "OwnableUnauthorizedAccount",
      "type": "error"
    },
    {
      "anonymous": false,
      "inputs": [
        {
          "indexed": true,
          "internalType": "address",
          "name": "owner",
          "type": "address"
        },
        {
          "indexed": true,
          "internalType": "address",
          "name": "approved",
          "type": "address"
        },
        {
          "indexed": true,
          "internalType": "uint256",
          "name": "tokenId",
          "type": "uint256"
        }
      ],
      "name": "Approval",
      "type": "event"
    },
    {
      "anonymous": false,
      "inputs": [
        {
          "indexed": true,
          "internalType": "address",
          "name": "owner",
          "type": "address"
        },
        {
          "indexed": true,
          "internalType": "address",
          "name": "operator",
          "type": "address"
        },
        {
          "indexed": false,
          "internalType": "bool",
          "name": "approved",
          "type": "bool"
        }
      ],
      "name": "ApprovalForAll",
      "type": "event"
    },
    {
      "anonymous": false,
      "inputs": [
        {
          "indexed": false,
          "internalType": "uint256",
          "name": "_fromTokenId",
          "type": "uint256"
        },
        {
          "indexed": false,
          "internalType": "uint256",
          "name": "_toTokenId",
          "type": "uint256"
        }
      ],
      "name": "BatchMetadataUpdate",
      "type": "event"
    },
    {
      "anonymous": false,
      "inputs": [
        {
          "indexed": false,
          "internalType": "uint256",
          "name": "_tokenId",
          "type": "uint256"
        }
      ],
      "name": "MetadataUpdate",
      "type": "event"
    },
    {
      "anonymous": false,
      "inputs": [
        {
          "indexed": true,
          "internalType": "address",
          "name": "previousOwner",
          "type": "address"
        },
        {
          "indexed": true,
          "internalType": "address",
          "name": "newOwner",
          "type": "address"
        }
      ],
      "name": "OwnershipTransferred",
      "type": "event"
    },
    {
      "anonymous": false,
      "inputs": [
        {
          "indexed": true,
          "internalType": "address",
          "name": "from",
          "type": "address"
        },
        {
          "indexed": true,
          "internalType": "address",
          "name": "to",
          "type": "address"
        },
        {
          "indexed": true,
          "internalType": "uint256",
          "name": "tokenId",
          "type": "uint256"
        }
      ],
      "name": "Transfer",
      "type": "event"
    },
    {
      "inputs": [
        {
          "internalType": "address",
          "name": "to",
          "type": "address"
        },
        {
          "internalType": "uint256",
          "name": "tokenId",
          "type": "uint256"
        }
      ],
      "name": "approve",
      "outputs": [],
      "stateMutability": "nonpayable",
      "type": "function"
    },
    {
      "inputs": [
        {
          "internalType": "address",
          "name": "owner",
          "type": "address"
        }
      ],
      "name": "balanceOf",
      "outputs": [
        {
          "internalType": "uint256",
          "name": "",
          "type": "uint256"
        }
      ],
      "stateMutability": "view",
      "type": "function"
    },
    {
      "inputs": [
        {
          "internalType": "uint256",
          "name": "tokenId",
          "type": "uint256"
        }
      ],
      "name": "getApproved",
      "outputs": [
        {
          "internalType": "address",
          "name": "",
          "type": "address"
        }
      ],
      "stateMutability": "view",
      "type": "function"
    },
    {
      "inputs": [],
      "name": "getCurrentTokenId",
      "outputs": [
        {
          "internalType": "uint256",
          "name": "",
          "type": "uint256"
        }
      ],
      "stateMutability": "view",
      "type": "function"
    },
    {
      "inputs": [
        {
          "internalType": "address",
          "name": "owner",
          "type": "address"
        },
        {
          "internalType": "address",
          "name": "operator",
          "type": "address"
        }
      ],
      "name": "isApprovedForAll",
      "outputs": [
        {
          "internalType": "bool",
          "name": "",
          "type": "bool"
        }
      ],
      "stateMutability": "view",
      "type": "function"
    },
    {
      "inputs": [
        {
          "internalType": "address",
          "name": "to",
          "type": "address"
        },
        {
          "internalType": "string",
          "name": "tokenURI",
          "type": "string"
        }
      ],
      "name": "mintProperty",
      "outputs": [],
      "stateMutability": "nonpayable",
      "type": "function"
    },
    {
      "inputs": [],
      "name": "name",
      "outputs": [
        {
          "internalType": "string",
          "name": "",
          "type": "string"
        }
      ],
      "stateMutability": "view",
      "type": "function"
    },
    {
      "inputs": [],
      "name": "owner",
      "outputs": [
        {
          "internalType": "address",
          "name": "",
          "type": "address"
        }
      ],
      "stateMutability": "view",
      "type": "function"
    },
    {
      "inputs": [
        {
          "internalType": "uint256",
          "name": "tokenId",
          "type": "uint256"
        }
      ],
      "name": "ownerOf",
      "outputs": [
        {
          "internalType": "address",
          "name": "",
          "type": "address"
        }
      ],
      "stateMutability": "view",
      "type": "function"
    },
    {
      "inputs": [],
      "name": "renounceOwnership",
      "outputs": [],
      "stateMutability": "nonpayable",
      "type": "function"
    },
    {
      "inputs": [
        {
          "internalType": "address",
          "name": "from",
          "type": "address"
        },
        {
          "internalType": "address",
          "name": "to",
          "type": "address"
        },
        {
          "internalType": "uint256",
          "name": "tokenId",
          "type": "uint256"
        }
      ],
      "name": "safeTransferFrom",
      "outputs": [],
      "stateMutability": "nonpayable",
      "type": "function"
    },
    {
      "inputs": [
        {
          "internalType": "address",
          "name": "from",
          "type": "address"
        },
        {
          "internalType": "address",
          "name": "to",
          "type": "address"
        },
        {
          "internalType": "uint256",
          "name": "tokenId",
          "type": "uint256"
        },
        {
          "internalType": "bytes",
          "name": "data",
          "type": "bytes"
        }
      ],
      "name": "safeTransferFrom",
      "outputs": [],
      "stateMutability": "nonpayable",
      "type": "function"
    },
    {
      "inputs": [
        {
          "internalType": "address",
          "name": "operator",
          "type": "address"
        },
        {
          "internalType": "bool",
          "name": "approved",
          "type": "bool"
        }
      ],
      "name": "setApprovalForAll",
      "outputs": [],
      "stateMutability": "nonpayable",
      "type": "function"
    },
    {
      "inputs": [
        {
          "internalType": "bytes4",
          "name": "interfaceId",
          "type": "bytes4"
        }
      ],
      "name": "supportsInterface",
      "outputs": [
        {
          "internalType": "bool",
          "name": "",
          "type": "bool"
        }
      ],
      "stateMutability": "view",
      "type": "function"
    },
    {
      "inputs": [],
      "name": "symbol",
      "outputs": [
        {
          "internalType": "string",
          "name": "",
          "type": "string"
        }
      ],
      "stateMutability": "view",
      "type": "function"
    },
    {
      "inputs": [
        {
          "internalType": "uint256",
          "name": "tokenId",
          "type": "uint256"
        }
      ],
      "name": "tokenURI",
      "outputs": [
        {
          "internalType": "string",
          "name": "",
          "type": "string"
        }
      ],
      "stateMutability": "view",
      "type": "function"
    },
    {
      "inputs": [
        {
          "internalType": "address",
          "name": "from",
          "type": "address"
        },
        {
          "internalType": "address",
          "name": "to",
          "type": "address"
        },
        {
          "internalType": "uint256",
          "name": "tokenId",
          "type": "uint256"
        }
      ],
      "name": "transferFrom",
      "outputs": [],
      "stateMutability": "nonpayable",
      "type": "function"
    },
    {
      "inputs": [
        {
          "internalType": "address",
          "name": "newOwner",
          "type": "address"
        }
      ],
      "name": "transferOwnership",
      "outputs": [],
      "stateMutability": "nonpayable",
      "type": "function"
    }
  ],
  "bytecode": "0x608060405234801561001057600080fd5b50336040518060400160405280601281526020017f536d617274446565642050726f706572747900000000000000000000000000008152506040518060400160405280600381526020017f5344500000000000000000000000000000000000000000000000000000000000815250816000908161008d919061043d565b50806001908161009d919061043d565b505050600073ffffffffffffffffffffffffffffffffffffffff168173ffffffffffffffffffffffffffffffffffffffff16036101125760006040517f1e4fbdf70000000000000000000000000000000000000000000000000000000081526004016101099190610550565b60405180910390fd5b6101218161012760201b60201c565b5061056b565b6000600760009054906101000a900473ffffffffffffffffffffffffffffffffffffffff16905081600760006101000a81548173ffffffffffffffffffffffffffffffffffffffff021916908373ffffffffffffffffffffffffffffffffffffffff1602179055508173ffffffffffffffffffffffffffffffffffffffff168173ffffffffffffffffffffffffffffffffffffffff167f8be0079c531659141344cd1fd0a4f28419497f9722a3daafe3b4186f6b6457e060405160405180910390a35050565b600081519050919050565b7f4e487b7100000000000000000000000000000000000000000000000000000000600052604160045260246000fd5b7f4e487b7100000000000000000000000000000000000000000000000000000000600052602260045260246000fd5b6000600282049050600182168061026e57607f821691505b60208210810361028157610280610227565b5b50919050565b60008190508160005260206000209050919050565b60006020601f8301049050919050565b600082821b905092915050565b6000600883026102e97fffffffffffffffffffffffffffffffffffffffffffffffffffffffffffffffff826102ac565b6102f386836102ac565b95508019841693508086168417925050509392505050565b6000819050919050565b6000819050919050565b600061033a6103356103308461030b565b610315565b61030b565b9050919050565b6000819050919050565b6103548361031f565b61036861036082610341565b8484546102b9565b825550505050565b600090565b61037d610370565b61038881848461034b565b505050565b5b818110156103ac576103a1600082610375565b60018101905061038e565b5050565b601f8211156103f1576103c281610287565b6103cb8461029c565b810160208510156103da578190505b6103ee6103e68561029c565b83018261038d565b50505b505050565b600082821c905092915050565b6000610414600019846008026103f6565b1980831691505092915050565b600061042d8383610403565b9150826002028217905092915050565b610446826101ed565b67ffffffffffffffff81111561045f5761045e6101f8565b5b6104698254610256565b6104748282856103b0565b600060209050601f8311600181146104a75760008415610495578287015190505b61049f8582610421565b865550610507565b601f1984166104b586610287565b60005b828110156104dd578489015182556001820191506020850194506020810190506104b8565b868310156104fa57848901516104f6601f891682610403565b8355505b6001600288020188555050505b505050505050565b600073ffffffffffffffffffffffffffffffffffffffff82169050919050565b600061053a8261050f565b9050919050565b61054a8161052f565b82525050565b60006020820190506105656000830184610541565b92915050565b61269b8061057a6000396000f3fe608060405234801561001057600080fd5b50600436106101165760003560e01c806370a08231116100a2578063a22cb46511610071578063a22cb465146102cd578063b88d4fde146102e9578063c87b56dd14610305578063e985e9c514610335578063f2fde38b1461036557610116565b806370a0823114610257578063715018a6146102875780638da5cb5b1461029157806395d89b41146102af57610116565b8063177dc17f116100e9578063177dc17f146101b557806323b872dd146101d157806342842e0e146101ed57806356189236146102095780636352211e1461022757610116565b806301ffc9a71461011b57806306fdde031461014b578063081812fc14610169578063095ea7b314610199575b600080fd5b61013560048036038101906101309190611af3565b610381565b6040516101429190611b3b565b60405180910390f35b6101536103e2565b6040516101609190611be6565b60405180910390f35b610183600480360381019061017e9190611c3e565b610474565b6040516101909190611cac565b60405180910390f35b6101b360048036038101906101ae9190611cf3565b610490565b005b6101cf60048036038101906101ca9190611e68565b6104a6565b005b6101eb60048036038101906101e69190611ec4565b6104e6565b005b61020760048036038101906102029190611ec4565b6105e8565b005b610211610608565b60405161021e9190611f26565b60405180910390f35b610241600480360381019061023c9190611c3e565b610612565b60405161024e9190611cac565b60405180910390f35b610271600480360381019061026c9190611f41565b610624565b60405161027e9190611f26565b60405180910390f35b61028f6106de565b005b6102996106f2565b6040516102a69190611cac565b60405180910390f35b6102b761071c565b6040516102c49190611be6565b60405180910390f35b6102e760048036038101906102e29190611f9a565b6107ae565b005b61030360048036038101906102fe919061207b565b6107c4565b005b61031f600480360381019061031a9190611c3e565b6107e9565b60405161032c9190611be6565b60405180910390f35b61034f600480360381019061034a91906120fe565b6108fc565b60405161035c9190611b3b565b60405180910390f35b61037f600480360381019061037a9190611f41565b610990565b005b6000634906490660e01b7bffffffffffffffffffffffffffffffffffffffffffffffffffffffff1916827bffffffffffffffffffffffffffffffffffffffffffffffffffffffff191614806103db57506103da82610a16565b5b9050919050565b6060600080546103f19061216d565b80601f016020809104026020016040519081016040528092919081815260200182805461041d9061216d565b801561046a5780601f1061043f5761010080835404028352916020019161046a565b820191906000526020600020905b81548152906001019060200180831161044d57829003601f168201915b5050505050905090565b600061047f82610af8565b5061048982610b80565b9050919050565b6104a2828261049d610bbd565b610bc5565b5050565b6104ae610bd7565b600060085490506104bf8382610c5e565b6104c98183610c7c565b600860008154809291906104dc906121cd565b9190505550505050565b600073ffffffffffffffffffffffffffffffffffffffff168273ffffffffffffffffffffffffffffffffffffffff16036105585760006040517f64a0ae9200000000000000000000000000000000000000000000000000000000815260040161054f9190611cac565b60405180910390fd5b600061056c8383610567610bbd565b610cd8565b90508373ffffffffffffffffffffffffffffffffffffffff168173ffffffffffffffffffffffffffffffffffffffff16146105e2578382826040517f64283d7b0000000000000000000000000000000000000000000000000000000081526004016105d993929190612215565b60405180910390fd5b50505050565b610603838383604051806020016040528060008152506107c4565b505050565b6000600854905090565b600061061d82610af8565b9050919050565b60008073ffffffffffffffffffffffffffffffffffffffff168273ffffffffffffffffffffffffffffffffffffffff16036106975760006040517f89c62b6400000000000000000000000000000000000000000000000000000000815260040161068e9190611cac565b60405180910390fd5b600360008373ffffffffffffffffffffffffffffffffffffffff1673ffffffffffffffffffffffffffffffffffffffff168152602001908152602001600020549050919050565b6106e6610bd7565b6106f06000610ef2565b565b6000600760009054906101000a900473ffffffffffffffffffffffffffffffffffffffff16905090565b60606001805461072b9061216d565b80601f01602080910402602001604051908101604052809291908181526020018280546107579061216d565b80156107a45780601f10610779576101008083540402835291602001916107a4565b820191906000526020600020905b81548152906001019060200180831161078757829003601f168201915b5050505050905090565b6107c06107b9610bbd565b8383610fb8565b5050565b6107cf8484846104e6565b6107e36107da610bbd565b85858585611127565b50505050565b60606107f482610af8565b5060006006600084815260200190815260200160002080546108159061216d565b80601f01602080910402602001604051908101604052809291908181526020018280546108419061216d565b801561088e5780601f106108635761010080835404028352916020019161088e565b820191906000526020600020905b81548152906001019060200180831161087157829003601f168201915b50505050509050600061089f6112d8565b905060008151036108b45781925050506108f7565b6000825111156108e95780826040516020016108d1929190612288565b604051602081830303815290604052925050506108f7565b6108f2846112ef565b925050505b919050565b6000600560008473ffffffffffffffffffffffffffffffffffffffff1673ffffffffffffffffffffffffffffffffffffffff16815260200190815260200160002060008373ffffffffffffffffffffffffffffffffffffffff1673ffffffffffffffffffffffffffffffffffffffff16815260200190815260200160002060009054906101000a900460ff16905092915050565b610998610bd7565b600073ffffffffffffffffffffffffffffffffffffffff168173ffffffffffffffffffffffffffffffffffffffff1603610a0a5760006040517f1e4fbdf7000000000000000000000000000000000000000000000000000000008152600401610a019190611cac565b60405180910390fd5b610a1381610ef2565b50565b60007f80ac58cd000000000000000000000000000000000000000000000000000000007bffffffffffffffffffffffffffffffffffffffffffffffffffffffff1916827bffffffffffffffffffffffffffffffffffffffffffffffffffffffff19161480610ae157507f5b5e139f000000000000000000000000000000000000000000000000000000007bffffffffffffffffffffffffffffffffffffffffffffffffffffffff1916827bffffffffffffffffffffffffffffffffffffffffffffffffffffffff1916145b80610af15750610af082611358565b5b9050919050565b600080610b04836113c2565b9050600073ffffffffffffffffffffffffffffffffffffffff168173ffffffffffffffffffffffffffffffffffffffff1603610b7757826040517f7e273289000000000000000000000000000000000000000000000000000000008152600401610b6e9190611f26565b60405180910390fd5b80915050919050565b60006004600083815260200190815260200160002060009054906101000a900473ffffffffffffffffffffffffffffffffffffffff169050919050565b600033905090565b610bd283838360016113ff565b505050565b610bdf610bbd565b73ffffffffffffffffffffffffffffffffffffffff16610bfd6106f2565b73ffffffffffffffffffffffffffffffffffffffff1614610c5c57610c20610bbd565b6040517f118cdaa7000000000000000000000000000000000000000000000000000000008152600401610c539190611cac565b60405180910390fd5b565b610c788282604051806020016040528060008152506115c4565b5050565b80600660008481526020019081526020016000209081610c9c9190612458565b507ff8e1a15aba9398e019f0b49df1a4fde98ee17ae345cb5f6b5e2c27f5033e8ce782604051610ccc9190611f26565b60405180910390a15050565b600080610ce4846113c2565b9050600073ffffffffffffffffffffffffffffffffffffffff168373ffffffffffffffffffffffffffffffffffffffff1614610d2657610d258184866115e8565b5b600073ffffffffffffffffffffffffffffffffffffffff168173ffffffffffffffffffffffffffffffffffffffff1614610db757610d686000856000806113ff565b6001600360008373ffffffffffffffffffffffffffffffffffffffff1673ffffffffffffffffffffffffffffffffffffffff168152602001908152602001600020600082825403925050819055505b600073ffffffffffffffffffffffffffffffffffffffff168573ffffffffffffffffffffffffffffffffffffffff1614610e3a576001600360008773ffffffffffffffffffffffffffffffffffffffff1673ffffffffffffffffffffffffffffffffffffffff168152602001908152602001600020600082825401925050819055505b846002600086815260200190815260200160002060006101000a81548173ffffffffffffffffffffffffffffffffffffffff021916908373ffffffffffffffffffffffffffffffffffffffff160217905550838573ffffffffffffffffffffffffffffffffffffffff168273ffffffffffffffffffffffffffffffffffffffff167fddf252ad1be2c89b69c2b068fc378daa952ba7f163c4a11628f55a4df523b3ef60405160405180910390a4809150509392505050565b6000600760009054906101000a900473ffffffffffffffffffffffffffffffffffffffff16905081600760006101000a81548173ffffffffffffffffffffffffffffffffffffffff021916908373ffffffffffffffffffffffffffffffffffffffff1602179055508173ffffffffffffffffffffffffffffffffffffffff168173ffffffffffffffffffffffffffffffffffffffff167f8be0079c531659141344cd1fd0a4f28419497f9722a3daafe3b4186f6b6457e060405160405180910390a35050565b600073ffffffffffffffffffffffffffffffffffffffff168273ffffffffffffffffffffffffffffffffffffffff160361102957816040517f5b08ba180000000000000000000000000000000000000000000000000000000081526004016110209190611cac565b60405180910390fd5b80600560008573ffffffffffffffffffffffffffffffffffffffff1673ffffffffffffffffffffffffffffffffffffffff16815260200190815260200160002060008473ffffffffffffffffffffffffffffffffffffffff1673ffffffffffffffffffffffffffffffffffffffff16815260200190815260200160002060006101000a81548160ff0219169083151502179055508173ffffffffffffffffffffffffffffffffffffffff168373ffffffffffffffffffffffffffffffffffffffff167f17307eab39ab6107e8899845ad3d59bd9653f200f220920489ca2b5937696c318360405161111a9190611b3b565b60405180910390a3505050565b60008373ffffffffffffffffffffffffffffffffffffffff163b11156112d1578273ffffffffffffffffffffffffffffffffffffffff1663150b7a02868685856040518563ffffffff1660e01b8152600401611186949392919061257f565b6020604051808303816000875af19250505080156111c257506040513d601f19601f820116820180604052508101906111bf91906125e0565b60015b611246573d80600081146111f2576040519150601f19603f3d011682016040523d82523d6000602084013e6111f7565b606091505b50600081510361123e57836040517f64a0ae920000000000000000000000000000000000000000000000000000000081526004016112359190611cac565b60405180910390fd5b805181602001fd5b63150b7a0260e01b7bffffffffffffffffffffffffffffffffffffffffffffffffffffffff1916817bffffffffffffffffffffffffffffffffffffffffffffffffffffffff1916146112cf57836040517f64a0ae920000000000000000000000000000000000000000000000000000000081526004016112c69190611cac565b60405180910390fd5b505b5050505050565b606060405180602001604052806000815250905090565b60606112fa82610af8565b5060006113056112d8565b905060008151116113255760405180602001604052806000815250611350565b8061132f846116ac565b604051602001611340929190612288565b6040516020818303038152906040525b915050919050565b60007f01ffc9a7000000000000000000000000000000000000000000000000000000007bffffffffffffffffffffffffffffffffffffffffffffffffffffffff1916827bffffffffffffffffffffffffffffffffffffffffffffffffffffffff1916149050919050565b60006002600083815260200190815260200160002060009054906101000a900473ffffffffffffffffffffffffffffffffffffffff169050919050565b80806114385750600073ffffffffffffffffffffffffffffffffffffffff168273ffffffffffffffffffffffffffffffffffffffff1614155b1561156c57600061144884610af8565b9050600073ffffffffffffffffffffffffffffffffffffffff168373ffffffffffffffffffffffffffffffffffffffff16141580156114b357508273ffffffffffffffffffffffffffffffffffffffff168173ffffffffffffffffffffffffffffffffffffffff1614155b80156114c657506114c481846108fc565b155b1561150857826040517fa9fbf51f0000000000000000000000000000000000000000000000000000000081526004016114ff9190611cac565b60405180910390fd5b811561156a57838573ffffffffffffffffffffffffffffffffffffffff168273ffffffffffffffffffffffffffffffffffffffff167f8c5be1e5ebec7d5bd14f71427d1e84f3dd0314c0f7b2291e5b200ac8c7c3b92560405160405180910390a45b505b836004600085815260200190815260200160002060006101000a81548173ffffffffffffffffffffffffffffffffffffffff021916908373ffffffffffffffffffffffffffffffffffffffff16021790555050505050565b6115ce838361177a565b6115e36115d9610bbd565b6000858585611127565b505050565b6115f3838383611873565b6116a757600073ffffffffffffffffffffffffffffffffffffffff168373ffffffffffffffffffffffffffffffffffffffff160361166857806040517f7e27328900000000000000000000000000000000000000000000000000000000815260040161165f9190611f26565b60405180910390fd5b81816040517f177e802f00000000000000000000000000000000000000000000000000000000815260040161169e92919061260d565b60405180910390fd5b505050565b6060600060016116bb84611934565b01905060008167ffffffffffffffff8111156116da576116d9611d3d565b5b6040519080825280601f01601f19166020018201604052801561170c5781602001600182028036833780820191505090505b509050600082602001820190505b60011561176f578080600190039150507f3031323334353637383961626364656600000000000000000000000000000000600a86061a8153600a858161176357611762612636565b5b0494506000850361171a575b819350505050919050565b600073ffffffffffffffffffffffffffffffffffffffff168273ffffffffffffffffffffffffffffffffffffffff16036117ec5760006040517f64a0ae920000000000000000000000000000000000000000000000000000000081526004016117e39190611cac565b60405180910390fd5b60006117fa83836000610cd8565b9050600073ffffffffffffffffffffffffffffffffffffffff168173ffffffffffffffffffffffffffffffffffffffff161461186e5760006040517f73c6ac6e0000000000000000000000000000000000000000000000000000000081526004016118659190611cac565b60405180910390fd5b505050565b60008073ffffffffffffffffffffffffffffffffffffffff168373ffffffffffffffffffffffffffffffffffffffff161415801561192b57508273ffffffffffffffffffffffffffffffffffffffff168473ffffffffffffffffffffffffffffffffffffffff1614806118ec57506118eb84846108fc565b5b8061192a57508273ffffffffffffffffffffffffffffffffffffffff1661191283610b80565b73ffffffffffffffffffffffffffffffffffffffff16145b5b90509392505050565b600080600090507a184f03e93ff9f4daa797ed6e38ed64bf6a1f0100000000000000008310611992577a184f03e93ff9f4daa797ed6e38ed64bf6a1f010000000000000000838161198857611987612636565b5b0492506040810190505b6d04ee2d6d415b85acef810000000083106119cf576d04ee2d6d415b85acef810000000083816119c5576119c4612636565b5b0492506020810190505b662386f26fc1000083106119fe57662386f26fc1000083816119f4576119f3612636565b5b0492506010810190505b6305f5e1008310611a27576305f5e1008381611a1d57611a1c612636565b5b0492506008810190505b6127108310611a4c576127108381611a4257611a41612636565b5b0492506004810190505b60648310611a6f5760648381611a6557611a64612636565b5b0492506002810190505b600a8310611a7e576001810190505b80915050919050565b6000604051905090565b600080fd5b600080fd5b60007fffffffff0000000000000000000000000000000000000000000000000000000082169050919050565b611ad081611a9b565b8114611adb57600080fd5b50565b600081359050611aed81611ac7565b92915050565b600060208284031215611b0957611b08611a91565b5b6000611b1784828501611ade565b91505092915050565b60008115159050919050565b611b3581611b20565b82525050565b6000602082019050611b506000830184611b2c565b92915050565b600081519050919050565b600082825260208201905092915050565b60005b83811015611b90578082015181840152602081019050611b75565b60008484015250505050565b6000601f19601f8301169050919050565b6000611bb882611b56565b611bc28185611b61565b9350611bd2818560208601611b72565b611bdb81611b9c565b840191505092915050565b60006020820190508181036000830152611c008184611bad565b905092915050565b6000819050919050565b611c1b81611c08565b8114611c2657600080fd5b50565b600081359050611c3881611c12565b92915050565b600060208284031215611c5457611c53611a91565b5b6000611c6284828501611c29565b91505092915050565b600073ffffffffffffffffffffffffffffffffffffffff82169050919050565b6000611c9682611c6b565b9050919050565b611ca681611c8b565b82525050565b6000602082019050611cc16000830184611c9d565b92915050565b611cd081611c8b565b8114611cdb57600080fd5b50565b600081359050611ced81611cc7565b92915050565b60008060408385031215611d0a57611d09611a91565b5b6000611d1885828601611cde565b9250506020611d2985828601611c29565b9150509250929050565b600080fd5b600080fd5b7f4e487b7100000000000000000000000000000000000000000000000000000000600052604160045260246000fd5b611d7582611b9c565b810181811067ffffffffffffffff82111715611d9457611d93611d3d565b5b80604052505050565b6000611da7611a87565b9050611db38282611d6c565b919050565b600067ffffffffffffffff821115611dd357611dd2611d3d565b5b611ddc82611b9c565b9050602081019050919050565b82818337600083830152505050565b6000611e0b611e0684611db8565b611d9d565b905082815260208101848484011115611e2757611e26611d38565b5b611e32848285611de9565b509392505050565b600082601f830112611e4f57611e4e611d33565b5b8135611e5f848260208601611df8565b91505092915050565b60008060408385031215611e7f57611e7e611a91565b5b6000611e8d85828601611cde565b925050602083013567ffffffffffffffff811115611eae57611ead611a96565b5b611eba85828601611e3a565b9150509250929050565b600080600060608486031215611edd57611edc611a91565b5b6000611eeb86828701611cde565b9350506020611efc86828701611cde565b9250506040611f0d86828701611c29565b9150509250925092565b611f2081611c08565b82525050565b6000602082019050611f3b6000830184611f17565b92915050565b600060208284031215611f5757611f56611a91565b5b6000611f6584828501611cde565b91505092915050565b611f7781611b20565b8114611f8257600080fd5b50565b600081359050611f9481611f6e565b92915050565b60008060408385031215611fb157611fb0611a91565b5b6000611fbf85828601611cde565b9250506020611fd085828601611f85565b9150509250929050565b600067ffffffffffffffff821115611ff557611ff4611d3d565b5b611ffe82611b9c565b9050602081019050919050565b600061201e61201984611fda565b611d9d565b90508281526020810184848401111561203a57612039611d38565b5b612045848285611de9565b509392505050565b600082601f83011261206257612061611d33565b5b813561207284826020860161200b565b91505092915050565b6000806000806080858703121561209557612094611a91565b5b60006120a387828801611cde565b94505060206120b487828801611cde565b93505060406120c587828801611c29565b925050606085013567ffffffffffffffff8111156120e6576120e5611a96565b5b6120f28782880161204d565b91505092959194509250565b6000806040838503121561211557612114611a91565b5b600061212385828601611cde565b925050602061213485828601611cde565b9150509250929050565b7f4e487b7100000000000000000000000000000000000000000000000000000000600052602260045260246000fd5b6000600282049050600182168061218557607f821691505b6020821081036121985761219761213e565b5b50919050565b7f4e487b7100000000000000000000000000000000000000000000000000000000600052601160045260246000fd5b60006121d882611c08565b91507fffffffffffffffffffffffffffffffffffffffffffffffffffffffffffffffff820361220a5761220961219e565b5b600182019050919050565b600060608201905061222a6000830186611c9d565b6122376020830185611f17565b6122446040830184611c9d565b949350505050565b600081905092915050565b600061226282611b56565b61226c818561224c565b935061227c818560208601611b72565b80840191505092915050565b60006122948285612257565b91506122a08284612257565b91508190509392505050565b60008190508160005260206000209050919050565b60006020601f8301049050919050565b600082821b905092915050565b60006008830261230e7fffffffffffffffffffffffffffffffffffffffffffffffffffffffffffffffff826122d1565b61231886836122d1565b95508019841693508086168417925050509392505050565b6000819050919050565b600061235561235061234b84611c08565b612330565b611c08565b9050919050565b6000819050919050565b61236f8361233a565b61238361237b8261235c565b8484546122de565b825550505050565b600090565b61239861238b565b6123a3818484612366565b505050565b5b818110156123c7576123bc600082612390565b6001810190506123a9565b5050565b601f82111561240c576123dd816122ac565b6123e6846122c1565b810160208510156123f5578190505b612409612401856122c1565b8301826123a8565b50505b505050565b600082821c905092915050565b600061242f60001984600802612411565b1980831691505092915050565b6000612448838361241e565b9150826002028217905092915050565b61246182611b56565b67ffffffffffffffff81111561247a57612479611d3d565b5b612484825461216d565b61248f8282856123cb565b600060209050601f8311600181146124c257600084156124b0578287015190505b6124ba858261243c565b865550612522565b601f1984166124d0866122ac565b60005b828110156124f8578489015182556001820191506020850194506020810190506124d3565b868310156125155784890151612511601f89168261241e565b8355505b6001600288020188555050505b505050505050565b600081519050919050565b600082825260208201905092915050565b60006125518261252a565b61255b8185612535565b935061256b818560208601611b72565b61257481611b9c565b840191505092915050565b60006080820190506125946000830187611c9d565b6125a16020830186611c9d565b6125ae6040830185611f17565b81810360608301526125c08184612546565b905095945050505050565b6000815190506125da81611ac7565b92915050565b6000602082840312156125f6576125f5611a91565b5b6000612604848285016125cb565b91505092915050565b60006040820190506126226000830185611c9d565b61262f6020830184611f17565b9392505050565b7f4e487b7100000000000000000000000000000000000000000000000000000000600052601260045260246000fdfea2646970667358221220d20522c77c7ce84798137f094a92ef1cfadf76d78e9d5f5a8d26a2c7b9c146f764736f6c634300081c0033",
  "linkReferences": {},
  "deployedLinkReferences": {}
}